:100000000C942A000C942F050C942F050C942F05AA
:100010000C942F050C942F050C942F050C942F0590
:100020000C942F050C942F050C942F050C942F0580
:100030000C942F050C942F050C942F050C942F0570
:100040000C942F050C942F050C942F050C942F0560
:100050000C942F0511241FBECFE5D8E0DEBFCDBF25
:0C0060000E942D030C943400F894FFCF94
:10006C0049204C4F5645205500474F4F44204A4F8E
:10007C004200544849532049532054455252494256
:10008C004C45005749534820552041204841505079
:10009C0059004C4946450049274D20574154434887
:1000AC00494E4720550049205245414C4C59204C53
:1000BC004F564520550043414E27542046494E4447
:0600CC0020574F524400D2
:1000D200CF92DF92EF92CF93DF93CDB7DEB7CA56BE
:1000E200D1090FB6F894DEBF0FBECDBF9C010F2E13
:1000F200FCE6CF2EF0E0DF2EF0E0EF2EF02D89E0CF
:10010200F601DE0111967E2D0E94E70489E59FE447
:100112009B878A8785E590E09D878C870F2EF5E780
:10012200CF2EF0E0DF2EF0E0EF2EF02D89E0F60189
:10013200DE011E967E2D0E94E7040F2EFEE7CF2ED3
:10014200F0E0DF2EF0E0EF2EF02D81E1F601DE018E
:1001520057967E2D0E94E7040F2EFFE8CF2EF0E087
:10016200DF2EF0E0EF2EF02D8FE0F601DE01989603
:100172007E2D0E94E7040F2EFEE9CF2EF0E0DF2E47
:10018200F0E0EF2EF02D85E0F601DE01D7967E2D10
:100192000E94E7040F2EF3EACF2EF0E0DF2EF0E00C
:1001A200EF2EF02D8FE0F601DE01DC967E2D0E940F
:1001B200E7040F2EF2EBCF2EF0E0DF2EF0E0EF2E71
:1001C200F02D80E1F601DE01A55BBF4F7E2D0E947E
:1001D200E7040F2EF2ECCF2EF0E0DF2EF0E0EF2E50
:1001E200F02D80E1F601DE01A55ABF4F7E2D0E945F
:1001F200E704F9018081918184309105C9F48281FB
:100202009381049709F0ABC084819581029709F02C
:100212009AC086819781029709F095C08085918561
:10022200049709F090C0CE0101960E94CA04ADC0A5
:10023200029709F082C0F90182819381049709F043
:1002420094C084819581029709F095C08681978137
:10025200029709F090C080859185029709F08BC0C2
:10026200CE010A960E94CA0490C0F9018481958148
:10027200029709F086C086819781029709F081C0B2
:1002820080859185029709F07CC0CE010E960E946E
:10029200CA047BC0F90186819781029709F04DC09B
:1002A20080859185049709F048C0CE0147960E9447
:1002B200CA046BC0F901848195810497F1F58681A6
:1002C20097810497D1F5808591850497B1F5CE0188
:1002D20088960E94CA0465E070E081E090E00E9486
:1002E200D904CE01C7960E94CA044FC0F901848185
:1002F2009581039711F5868197810297F1F48085A4
:1003020091850297D1F4CE01CC960E94CA043DC0D9
:10031200039799F4F90184819581049771F4868198
:100322009781029751F480859185049731F4CE012B
:10033200855B9F4F0E94CA0428C0CE01855A9F4FF9
:100342000E94CA0422C0F9018281938184309105FE
:1003520009F4B0CFDDCFF90182819381D9CFF901C0
:10036200828193810297B9F780CFF90182819381CB
:10037200039719F7BBCFF901848195810297E9F6BA
:1003820089CFF90182819381C3CFC659DF4F0FB65E
:10039200F894DEBF0FBECDBFDF91CF91EF90DF901B
:0403A200CF9008955B
:1003A600452BC9F181309105A9F01CF4892B39F050
:1003B600089582309105C9F0039711F108952AB383
:1003C60081E090E002C0880F991F6A95E2F7822BC0
:1003D6008ABB089527B381E090E002C0880F991F79
:1003E6006A95E2F7822B87BB089524B381E090E0FB
:1003F60002C0880F991F6A95E2F7822B84BB089585
:1004060021B381E090E002C0880F991F6A95E2F758
:10041600822B81BB089581309105B1F01CF4892BA4
:1004260039F0089582309105D9F0039729F108959E
:100436002AB381E090E002C0880F991F6A95E2F71F
:10044600809582238ABB089527B381E090E002C09D
:10045600880F991F6A95E2F78095822387BB0895D6
:1004660024B381E090E002C0880F991F6A95E2F7F5
:100476008095822384BB089521B381E090E002C079
:10048600880F991F6A95E2F78095822381BB0895AC
:10049600452BC9F181309105A9F01CF4892B39F05F
:1004A600089582309105C9F0039711F108952BB391
:1004B60081E090E002C0880F991F6A95E2F7822BCF
:1004C6008BBB089528B381E090E002C0880F991F86
:1004D6006A95E2F7822B88BB089525B381E090E008
:1004E60002C0880F991F6A95E2F7822B85BB089593
:1004F60022B381E090E002C0880F991F6A95E2F767
:10050600822B82BB089581309105B1F01CF4892BB2
:1005160039F0089582309105D9F0039729F10895AD
:100526002BB381E090E002C0880F991F6A95E2F72D
:10053600809582238BBB089528B381E090E002C0AA
:10054600880F991F6A95E2F78095822388BB0895E4
:1005560025B381E090E002C0880F991F6A95E2F703
:100566008095822385BB089522B381E090E002C086
:10057600880F991F6A95E2F78095822382BB0895BA
:100586000FC00E94100538F00E94170520F0952331
:1005960011F00C941E050C942C0511240C940A05DC
:1005A6000E946F0470F3959FC1F3950F50E0551F9D
:1005B600629FF001729FBB27F00DB11D639FAA27B2
:1005C600F00DB11DAA1F649F6627B00DA11D661F01
:1005D600829F2227B00DA11D621F739FB00DA11D22
:1005E600621F839FA00D611D221F749F3327A00DDC
:1005F600611D231F849F600D211D822F762F6A2F78
:1006060011249F5750409AF0F1F088234AF0EE0FDC
:10061600FF1FBB1F661F771F881F91505040A9F709
:100626009E3F510580F00C941E050C940A055F3F11
:10063600E4F3983ED4F3869577956795B795F79545
:10064600E7959F5FC1F7FE2B880F911D96958795BD
:0406560097F9089573
:10065A00CF93DF93CDB7DEB72A970FB6F894DEBFF4
:10066A000FBECDBF0E94AF0367E070E080E090E06C
:10067A000E94A804CE0101967C0100E010E0C801A6
:10068A000E94F4040E9431050E94FB04BC01990FE8
:10069A00880B990B0E94740328E638EE4FE95BE356
:1006AA000E9428050E940205F701619371937F0158
:1006BA000F5F1F4F0530110511F70E942405CE0167
:1006CA0001960E946900FFEF25EA8EE0F150204072
:0A06DA008040E1F700C00000CDCF22
:1006E400E89409C097FB3EF49095809570956195C8
:1006F4007F4F8F4F9F4F9923A9F0F92F96E9BB277E
:100704009395F695879577956795B795F111F8CFF9
:10071400FAF4BB0F11F460FF1BC06F5F7F4F8F4F64
:100724009F4F16C0882311F096E911C0772321F05A
:100734009EE8872F762F05C0662371F096E8862FF2
:1007440070E060E02AF09A95660F771F881FDAF749
:0A075400880F9695879597F9089590
:10075E0084B3806F84BB41E050E060E070E083E0E2
:10076E0090E00E94D30141E050E061E070E083E050
:10077E0090E00E94D30141E050E062E070E083E03F
:10078E0090E00E94D30140E050E061E070E083E031
:10079E0090E00E944B0282E00E94440488E20E9494
:1007AE0044048CE00E94440486E00E9444040E94AB
:1007BE0024052FEF80E792E0215080409040E1F732
:0607CE0000C000000895C8
:1007D4000E94770488F09F5798F0B92F9927B75152
:1007E400B0F0E1F0660F771F881F991F1AF0BA95D1
:1007F400C9F714C0B13091F00E940905B1E0089521
:100804000C940905672F782F8827B85F39F0B93F12
:10081400CCF3869577956795B395D9F73EF4909583
:0E0824008095709561957F4F8F4F9F4F08957F
:10083200CF93C82F41E050E060E070E083E090E0A9
:100842000E944B0285B38F709C2F907F892B85BBB2
:100852000E9491048FE39CE90197F1F700C0000028
:1008620085B3282F2F7030E1C39FC0011124822B42
:1008720085BB0E9491048FE39CE90197F1F700C0C8
:060882000000CF91089573
:10088800CF93C82F40E050E060E070E083E090E054
:100898000E944B0285B38F709C2F907F892B85BB5C
:1008A8000E9491048FE39CE90197F1F700C00000D2
:1008B80085B3282F2F7030E1C39FC0011124822BEC
:1008C80085BB0E9491048FE39CE90197F1F700C072
:0608D8000000CF9108951D
:1008DE0057FD9058440F551F59F05F3F71F04795E3
:1008EE00880F97FB991F61F09F3F79F087950895C8
:1008FE00121613061406551FF2CF4695F1DF08C0E7
:10090E00161617061806991FF1CF86957105610503
:04091E00089408959C
:1009220041E050E062E070E083E090E00E944B0220
:100932008FE193E00197F1F700C0000040E050E042
:0E09420062E070E083E090E00E944B020895B6
:1009500027B10024969587950794969587950794D7
:10096000982F802D822B87B986B1682B66B9379A6C
:020970000895E8
:10097200092E0394000C11F4882352F0BB0F40F4AB
:10098200BF2B11F460FF04C06F5F7F4F8F4F9F4FEB
:020992000895C6
:10099400CF93DF93EC018881882331F021960E9464
:0E09A400190489918111FBCFDF91CF91089545
:1009B200892B31F0862F8F70806C0E944404089539
:0C09C200862F8F7080680E944404089506
:1009CE00992777FD05C005900D920197E1F70895DF
:0A09DE0001900D920197E1F70895D2
:0E09E80097B1907E97B997B1892B87B9089582
:0E09F600349BFECF84B125B190E0922B089582
:0E0A04000E94EA036894B1110C940A0508954B
:0E0A1200E894BB2766277727CB0197F9089554
:0E0A200000240A9416161706180609060895F3
:0E0A2E0000240A9412161306140605060895F5
:0C0A3C0097F99F6780E870E060E0089583
:080A480081E00E9444040895BE
:080A50000E94C3020C94B904DA
:060A58009FEF80EC089501
:040A5E000C940000F4
:040A6200369A089523
:00000001FF
